S01300006D6172745F6361736865722E7372656388
S113000045C0000058C0000056C0000054C00000A5
S113001052C0000050C000004EC000004CC00000A0
S11300204AC0000048C0000046C0000044C00000B0
S113003042C0000040C000003EC000003CC00000C0
S11300403AC0000038C0000036C0000034C00000D0
S113005032C0000030C000002EC000002CC00000E0
S11300602AC0000028C0000026C0000024C00000F0
S113007022C0000020C000001EC000001CC0000000
S11300801AC0000018C0000016C0000011241FBED2
S1130090CFEFD0E1DEBFCDBF11E0A0E0B1E0E2E2FE
S11300A0F2E000E00BBF02C007900D92AC31B10743
S11300B0D9F7B3D0B4C0A4CF8FEF84BB85BB089568
S11300C0982F907F95BBAA9AAA9820E1829FC0019D
S11300D0112485BBAA9AAA9880E49FE10197F1F7BD
S11300E00895982F907F916095BBAA9AAA9820E1D1
S11300F0829FC0011124816085BBAA9AAA9880E4DA
S11301009FE10197F1F70895662319F0613021F01A
S113011008958058D5CF08958054D2CF08950F9371
S11301201F93CF93DF93042F152FEEDFC02FD12F12
S11301308991D7DF88818111FBCFDF91CF911F9106
S11301400F910895B9DF80ED97E020E931E0F901DE
S11301503197F1F70197D9F780E699E00197F1F724
S113016088E2AEDF80ED97E020E931E0F9013197D4
S1130170F1F70197D9F788E2A3DF80ED97E020E952
S113018031E0F9013197F1F70197D9F78CE098DF65
S113019086E096DF82E094DF81E092DF81E090CF19
S11301A0089581E08DDF80E49CE90197F1F70895DB
S11301B0FF920F931F93CF93DF938FEF8ABB8FE050
S11301C081BBC0DFEEDF02E010E0C0E9D1E0FF2434
S11301D0FA9440E051E060E080E0A1DF4CE051E0BF
S11301E061E080E09CDF1BBA88EE93E0FE0131976A
S11301F0F1F70197D9F7D5DFFBBA88EE93E0FE015A
S11302003197F1F70197D9F70150110911F7DF91EF
S1130210CF911F910F91FF900895CADFFFCFF894FB
S1050220FFCF0A
S113022220096D61726B657420202000202020203B
S10F023273797374656D20202020000097
S9030000FC
