:1000000045C0000060C000005EC000005CC0000091
:100010005AC0000058C0000056C0000054C0000084
:1000200052C0000050C000004EC000004CC0000094
:100030004AC0000048C0000046C0000044C00000A4
:100040004CC1000040C000003EC000003CC00000A9
:100050003AC0000038C0000036C0000034C00000C4
:1000600032C0000030C000002EC000002CC00000D4
:100070002AC0000028C0000026C0000024C00000E4
:1000800022C0000020C000001EC0000011241FBEBE
:10009000CFEFD0E1DEBFCDBF11E0A0E0B1E0E8EBF3
:1000A000F9E000E00BBF02C007900D92AC33B1073E
:1000B000D9F721E0ACE3B1E001C01D92A434B2074E
:1000C000E1F768D177C49CCF8FEF84BB85BB0895DF
:1000D000982F907F95BBAA9AAA9820E1829FC00191
:1000E000112485BBAA9AAA9880E49FE10197F1F7B1
:1000F0000895982F907F916095BBAA9AAA9820E1C5
:10010000829FC0011124816085BBAA9AAA9880E4CD
:100110009FE10197F1F70895662319F0613021F00E
:1001200008958058D5CF08958054D2CF08950F9365
:100130001F93CF93DF93042F152FEEDFC02FD12F06
:100140008991D7DF88818111FBCFDF91CF911F91FA
:100150000F910895B9DF80ED97E020E931E0F901D2
:100160003197F1F70197D9F780E699E00197F1F718
:1001700088E2AEDF80ED97E020E931E0F9013197C8
:10018000F1F70197D9F788E2A3DF80ED97E020E946
:1001900031E0F9013197F1F70197D9F78CE098DF59
:1001A00086E096DF82E094DF81E092DF81E090CF0D
:1001B000089581E08DDF80E49CE90197F1F70895CF
:1001C000FF920F931F93CF93DF938FEF8ABB8FE044
:1001D00081BBC0DFEEDF02E010E0C0E9D1E00F2E0E
:1001E000F0EEFF2EF02D40E051E060E080E09FDF78
:1001F0004CE051E061E080E09ADF1BBA88EE93E0CA
:10020000FE013197F1F70197D9F7D3DFFBBA88EEFA
:1002100093E0FE013197F1F70197D9F701501109E9
:1002200011F77894DF91CF911F910F91FF9008956E
:10023000CF93DF93CDB7DEB760970FB6F894DEBFEC
:100240000FBECDBF5F934F937F936F939F938F9319
:100250008BE191E09F938F93CE0101969F938F93B3
:10026000CED049E251E060E080E061DF0FB6F89463
:10027000DEBF0FBECDBF60960FB6F894DEBF0FBED7
:10028000CDBFDF91CF9108958EEF82BB80E29EE4D7
:100290000197F1F780B38095807FB1F421E030E0E1
:1002A00061E070E040E25EE4CB01022E02C0880F04
:1002B000991F0A94E2F7809582BBCA010197F1F772
:1002C00080B38095807F11F080B308952F5F3F4FFA
:1002D0002430310549F780E008951F920F920FB640
:1002E0000F9211248F939F9380914201909143012B
:1002F00001969093430180934201CD9708F443C047
:1003000080913C0190913D0101968D33910528F437
:1003100090933D0180933C010DC010923D011092DD
:100320003C0180913E0190913F01019690933F01E5
:1003300080933E0180913E0190913F01CD9768F0FE
:1003400010923F0110923E01809140019091410135
:1003500001969093410180934001809140019091DA
:100360004101489760F010923D0110923C011092BB
:100370003F0110923E0110924101109240011092F3
:100380004301109242019F918F910F900FBE0F90E9
:100390001F901895CF93DF93CDB7DEB760970FB658
:1003A000F894DEBF0FBECDBF0BDF0F2EF7E3EF2EAD
:1003B000F1E0FF2EF02D8E010F5F1F4F65DFD82E6D
:1003C00040913C0150913D0160913E0170913F018F
:1003D00080914001909141012BDF1F92DF92FF92AB
:1003E000EF921F930F930BD0A80161E080E09FDE96
:1003F0000F900F900F900F900F900F90DFCF0F93F3
:100400001F93CF93DF93CDB7DEB72E970FB6F89437
:10041000DEBF0FBECDBF0D891E8986E08C831A8397
:1004200009838FEF9FE79E838D83AE01475E5F4F09
:100430006F89788DCE01019610D0EF81F885E00F9D
:10044000F11F10822E960FB6F894DEBF0FBECDBFFF
:10045000DF91CF911F910F9108952F923F924F926C
:100460005F926F927F928F929F92AF92BF92CF9244
:10047000DF92EF92FF920F931F93CF93DF93CDB74D
:10048000DEB72B970FB6F894DEBF0FBECDBF6C0161
:100490007B018A01FC0117821682838181FFBFC123
:1004A000CE0101963C01F6019381F70193FD859100
:1004B00093FF81917F01882309F4ADC1853239F41E
:1004C00093FD859193FF81917F01853221F4B601DF
:1004D00090E0D6D1E8CF912C212C312CFFE1F315FF
:1004E000D8F08B3279F038F4803279F08332A1F48D
:1004F000232D20611DC08D3261F0803369F4232DDE
:10050000216016C0832D8260382EE32DE4603E2EDC
:100510002AC0F32DF8601DC037FC2DC020ED280F38
:100520002A3040F08E32B9F436FC75C1232D206498
:10053000322E19C036FE06C08AE0989E200D112486
:10054000922E11C0EAE02E9E200D1124222EF32DB2
:10055000F0623F2E08C08C3621F4832D8068382E3F
:1005600002C0883641F4F70193FD859193FF819194
:100570007F018111B3CF982F9F7D9554933028F43C
:100580000C5F1F4F9FE399830DC0833631F0833793
:1005900071F0833509F055C020C0F801808189834E
:1005A0000E5F1F4F88248394912C530112C02801A1
:1005B000F2E04F0E511CF801A080B18036FE03C05E
:1005C000692D70E002C06FEF7FEFC5014ED14C0185
:1005D0008201F32DFF773F2E15C0280122E0420E45
:1005E000511CF801A080B18036FE03C0692D70E077
:1005F00002C06FEF7FEFC5012DD14C01F32DF068E4
:100600003F2E820133FC19C0822D90E08816990696
:10061000A0F4B60180E290E033D12A94F5CFF50141
:1006200037FC859137FE81915F01B60190E028D1BA
:1006300021102A9421E0821A91088114910479F7FB
:10064000E1C0843611F0893639F5F80137FE07C06C
:1006500060817181828193810C5F1F4F08C060812E
:100660007181072E000C880B990B0E5F1F4FF32D25
:10067000FF763F2E97FF09C0909580957095619504
:100680007F4F8F4F9F4FF0683F2E2AE030E0A3014D
:1006900033D1882E861844C0853731F4232D2F7E20
:1006A000B22E2AE030E025C0932D997FB92E8F36E7
:1006B000C1F018F4883579F0AEC0803719F088376A
:1006C00021F0A9C0E92FE061BE2EB4FE0DC0FB2DC4
:1006D000F460BF2E09C034FE0AC0292F2660B22E56
:1006E00006C028E030E005C020E130E002C020E193
:1006F00032E0F801B7FE07C0608171818281938189
:100700000C5F1F4F06C06081718180E090E00E5F3A
:100710001F4FA301F1D0882E8618FB2DFF773F2EA7
:1007200036FE0DC0232D2E7FA22E891458F434FEE0
:100730000BC032FC09C0832D8E7EA82E05C0B82CBC
:10074000A32C03C0B82C01C0B92CA4FE0FC0FE011D
:10075000E80DF11D8081803321F49A2D997EA92E18
:1007600009C0A2FE06C0B394B39404C08A2D867853
:1007700009F0B394A3FC10C0A0FE06C0B21480F42C
:10078000280C922C9B180DC0B21458F4B60180E2CC
:1007900090E076D0B394F8CFB21418F42B1802C0BE
:1007A000982C212CA4FE0FC0B60180E390E068D005
:1007B000A2FE16C0A1FC03C088E790E002C088E555
:1007C00090E0B6010CC08A2D867851F0A1FE02C0DF
:1007D0008BE201C080E2A7FC8DE2B60190E050D030
:1007E000891430F4B60180E390E04AD09A94F8CFAF
:1007F0008A94F301E80DF11D8081B60190E040D0AC
:100800008110F6CF222009F44ECEB60180E290E0AE
:1008100037D02A94F7CFF6018681978102C08FEFF7
:100820009FEF2B960FB6F894DEBF0FBECDBFDF91C2
:10083000CF911F910F91FF90EF90DF90CF90BF90DD
:10084000AF909F908F907F906F905F904F903F9070
:100850002F900895FC010590615070400110D8F769
:10086000809590958E0F9F1F0895FC0161507040F8
:1008700001900110D8F7809590958E0F9F1F0895D5
:100880000F931F93CF93DF93FB01238121FD03C0BF
:100890008FEF9FEF2CC022FF16C046815781248125
:1008A00035814217530744F4A081B1819D012F5F28
:1008B0003F4F318320838C93268137812F5F3F4FB9
:1008C0003783268314C08B01EC01FB010084F18582
:1008D000E02D0995892BE1F6D80116968D919C9112
:1008E0001797019617969C938E931697CE01DF91DA
:1008F000CF911F910F910895FA01AA27283051F145
:10090000203181F1E8946F936E7F6E5F7F4F8F4F40
:100910009F4FAF4FB1E03ED0B4E03CD0670F781F9F
:10092000891F9A1FA11D680F791F8A1F911DA11D84
:100930006A0F711D811D911DA11D20D009F46894BD
:100940003F912AE0269F11243019305D3193DEF665
:10095000CF010895462F4770405D4193B3E00FD01B
:10096000C9F7F6CF462F4F70405D4A3318F0495D06
:1009700031FD4052419302D0A9F7EACFB4E0A695E9
:100980009795879577956795BA95C9F7009761050B
:10099000710508959B01AC010A2E06945795479561
:1009A00037952795BA95C9F7620F731F841F951F56
:0809B000A01D0895F894FFCF8B
:1009B80020096D61726B65742020200020202020A2
:1009C80073797374656D20202020002020253264FF
:1009D8003A2532643A25326400202077656C636FCB
:0C09E8006D6521212020002533640000F3
:00000001FF
