S01300006D6172745F6361736865722E7372656388
S113000045C0000060C000005EC000005CC000008D
S11300105AC0000058C0000056C0000054C0000080
S113002052C0000050C000004EC000004CC0000090
S11300304AC0000048C0000046C0000044C00000A0
S11300404CC1000040C000003EC000003CC00000A5
S11300503AC0000038C0000036C0000034C00000C0
S113006032C0000030C000002EC000002CC00000D0
S11300702AC0000028C0000026C0000024C00000E0
S113008022C0000020C000001EC0000011241FBEBA
S1130090CFEFD0E1DEBFCDBF11E0A0E0B1E0ECEBEB
S11300A0FEE000E00BBF02C007900D92AA37B10733
S11300B0D9F721E0AAE7B1E001C01D92A23AB20744
S11300C0E1F755D2F9C69CCF8FEF84BB85BB089569
S11300D0982F907F95BBAA9AAA9820E1829FC0018D
S11300E0112485BBAA9AAA9880E49FE10197F1F7AD
S11300F00895982F907F916095BBAA9AAA9820E1C1
S1130100829FC0011124816085BBAA9AAA9880E4C9
S11301109FE10197F1F70895662319F0613021F00A
S113012008958058D5CF08958054D2CF08950F9361
S11301301F93CF93DF93042F152FEEDFC02FD12F02
S11301408991D7DF88818111FBCFDF91CF911F91F6
S11301500F910895B9DF80ED97E020E931E0F901CE
S11301603197F1F70197D9F780E699E00197F1F714
S113017088E2AEDF80ED97E020E931E0F9013197C4
S1130180F1F70197D9F788E2A3DF80ED97E020E942
S113019031E0F9013197F1F70197D9F78CE098DF55
S11301A086E096DF82E094DF81E092DF81E090CF09
S11301B0089581E08DDF80E49CE90197F1F70895CB
S11301C0FF920F931F93CF93DF938FEF8ABB8FE040
S11301D081BBC0DFEEDF02E010E0C0E9D1E00F2E0A
S11301E0F0EEFF2EF02D40E051E060E080E09FDF74
S11301F04CE051E061E080E09ADF1BBA88EE93E0C6
S1130200FE013197F1F70197D9F7D3DFFBBA88EEF6
S113021093E0FE013197F1F70197D9F701501109E5
S113022011F77894DF91CF911F910F91FF9008956A
S1130230CF93DF93CDB7DEB760970FB6F894DEBFE8
S11302400FBECDBF5F934F937F936F939F938F9315
S11302508BE191E09F938F93CE0101969F938F93AF
S113026050D349E251E060E080E061DF0FB6F894DA
S1130270DEBF0FBECDBF60960FB6F894DEBF0FBED3
S1130280CDBFDF91CF9108958EEF82BB80E29EE4D3
S11302900197F1F780B38095807FB1F421E030E0DD
S11302A061E070E040E25EE4CB01022E02C0880F00
S11302B0991F0A94E2F7809582BBCA010197F1F76E
S11302C080B38095807F11F080B308952F5F3F4FF6
S11302D02430310549F780E008951F920F920FB63C
S11302E00F9211240BB60F92FF920F931F932F932B
S11302F03F934F935F936F937F938F939F93AF93AA
S1130300BF93CF93DF93EF93FF9320919A013091A2
S11303109B0140919C0150919D0160919E017091BF
S11303209F018091A0019091A101A1E0D2D22093DC
S11303309A0130939B0140939C0150939D016093DB
S11303409E0170939F018093A0019093A101ACE35F
S1130350CCD209F00CF4F3C02091820130918301D6
S113036040918401509185016091860170918701CB
S11303708091880190918901A1E0ABD2ACE3B5D220
S113038009F08CF42093820130938301409384011B
S1130390509385016093860170938701809388014F
S11303A09093890132C010928201109283011092BD
S11303B08401109285011092860110928701109297
S11303C088011092890120918A0130918B0140911A
S11303D08C0150918D0160918E0170918F018091FB
S11303E0900190919101A1E074D220938A013093FD
S11303F08B0140938C0150938D0160938E01709317
S11304008F01809390019093910120918A01309102
S11304108B0140918C0150918D0160918E017091FE
S11304208F018091900190919101ACE35ED299F19A
S113043094F110928A0110928B0110928C01109207
S11304408D0110928E0110928F01109290011092E2
S11304509101209192013091930140919401509126
S11304609501609196017091970180919801909106
S11304709901A1E02ED220939201309393014093ED
S11304809401509395016093960170939701809322
S11304909801909399012091920130919301409198
S11304A0940150919501609196017091970180910A
S11304B0980190919901A7E118D289F184F11092E1
S11304C0820110928301109284011092850110928E
S11304D0860110928701109288011092890110926E
S11304E08A0110928B0110928C0110928D0110924E
S11304F08E0110928F01109290011092910110922E
S1130500920110929301109294011092950110920D
S113051096011092970110929801109299011092ED
S11305209A0110929B0110929C0110929D011092CD
S11305309E0110929F011092A0011092A101FF91BF
S1130540EF91DF91CF91BF91AF919F918F917F9167
S11305506F915F914F913F912F911F910F91FF9058
S11305600F900BBE0F900FBE0F901F901895CF9356
S1130570DF93CDB7DEB760970FB6F894DEBF0FBE3A
S1130580CDBF1EDE0F2EF2E8AF2EF1E0BF2EF02D10
S11305900F2EFAE8CF2EF1E0DF2EF02D0F2EF2E928
S11305A0EF2EF1E0FF2EF02D0F2EF7E64F2EF1E0A7
S11305B05F2EF02DCE0101963C0188248394912C6A
S11305C06894222421F8312C5FDE082F10E0F50115
S11305D040815181F60160817181F70180819181AF
S11305E027DE8091800190918101009791F4F501BB
S11305F040815181F60160817181F701808191818F
S113060017DE0B37110501F790928101809280016A
S1130610DBCF81309105F1F4CCDD47E351E060E0BC
S113062080E085DD46E451E061E080E080DD0E3E5F
S1130630110529F43092810120928001C5CF0E3D2D
S1130640110509F0C1CF83E090E09093810180937C
S11306508001BACF8230910509F031C1AADD45E5A8
S113066051E060E080E063DD80917E0190917F0144
S1130670892B09F008C10E3E1105A9F480917C0173
S113068090917D019C01220F331F880F991F880FC1
S1130690991F880F991F820F931F019690937D01D4
S11306A080937C01ECC00E3D1105A9F480917C017E
S11306B090917D019C01220F331F880F991F880F91
S11306C0991F880F991F820F931F029690937D01A3
S11306D080937C01D4C00E3B1105A9F480917C0168
S11306E090917D019C01220F331F880F991F880F61
S11306F0991F880F991F820F931F039690937D0172
S113070080937C01BCC00D3E1105A9F480917C014D
S113071090917D019C01220F331F880F991F880F30
S1130720991F880F991F820F931F049690937D0140
S113073080937C01A4C00D3D1105A9F480917C0136
S113074090917D019C01220F331F880F991F880F00
S1130750991F880F991F820F931F059690937D010F
S113076080937C018CC00D3B1105A9F480917C0120
S113077090917D019C01220F331F880F991F880FD0
S1130780991F880F991F820F931F069690937D01DE
S113079080937C0174C00B3E1105A9F480917C0107
S11307A090917D019C01220F331F880F991F880FA0
S11307B0991F880F991F820F931F079690937D01AD
S11307C080937C015CC00B3D1105A9F480917C01F0
S11307D090917D019C01220F331F880F991F880F70
S11307E0991F880F991F820F931F089690937D017C
S11307F080937C0144C00B3B1105A9F480917C01DA
S113080090917D019C01220F331F880F991F880F3F
S1130810991F880F991F820F931F099690937D014A
S113082080937C012CC0073E1105A1F480917C01CA
S113083090917D019C01220F331F880F991F880F0F
S1130840991F880F991F820F931F90937D018093A6
S11308507C0115C00E37110591F420917A01309175
S11308607B0180917C0190917D01820F931F909375
S11308707B0180937A0110927D0110927C01909209
S11308807F0180927E01012B21F410927F0110924E
S11308907E0180917D018F9380917C018F935F9283
S11308A04F927F926F922DD0A30161E080E03FDCF4
S11308B00F900F900F900F900F900F9085CE03978D
S11308C009F082CE76DC4CE651E060E080E02FDC7B
S11308D07BCE0024A7FD00942A0F301D401D501D1F
S11308E0601D701D801D901D08950024A7FD0094B7
S11308F02A173005400550056005700580059005F0
S113090008950F931F93CF93DF93CDB7DEB72E9740
S11309100FB6F894DEBF0FBECDBF0D891E8986E0E9
S11309208C831A8309838FEF9FE79E838D83AE01A7
S1130930475E5F4F6F89788DCE01019610D0EF81AD
S1130940F885E00FF11F10822E960FB6F894DEBFE3
S11309500FBECDBFDF91CF911F910F9108952F92BC
S11309603F924F925F926F927F928F929F92AF923B
S1130970BF92CF92DF92EF92FF920F931F93CF9388
S1130980DF93CDB7DEB72B970FB6F894DEBF0FBE5B
S1130990CDBF6C017B018A01FC0117821682838121
S11309A081FFBFC1CE0101963C01F6019381F7019D
S11309B093FD859193FF81917F01882309F4ADC153
S11309C0853239F493FD859193FF81917F018532BE
S11309D021F4B60190E0D6D1E8CF912C212C312C12
S11309E0FFE1F315D8F08B3279F038F4803279F0E6
S11309F08332A1F4232D20611DC08D3261F0803338
S1130A0069F4232D216016C0832D8260382EE32DD6
S1130A10E4603E2E2AC0F32DF8601DC037FC2DC0C3
S1130A2020ED280F2A3040F08E32B9F436FC75C11F
S1130A30232D2064322E19C036FE06C08AE0989E0B
S1130A40200D1124922E11C0EAE02E9E200D1124B7
S1130A50222EF32DF0623F2E08C08C3621F4832D14
S1130A608068382E02C0883641F4F70193FD8591E1
S1130A7093FF81917F018111B3CF982F9F7D95546E
S1130A80933028F40C5F1F4F9FE399830DC0833686
S1130A9031F0833771F0833509F055C020C0F80177
S1130AA0808189830E5F1F4F88248394912C530186
S1130AB012C02801F2E04F0E511CF801A080B18051
S1130AC036FE03C0692D70E002C06FEF7FEFC501F1
S1130AD04ED14C018201F32DFF773F2E15C0280122
S1130AE022E0420E511CF801A080B18036FE03C002
S1130AF0692D70E002C06FEF7FEFC5012DD14C016D
S1130B00F32DF0683F2E820133FC19C0822D90E052
S1130B1088169906A0F4B60180E290E033D12A94B5
S1130B20F5CFF50137FC859137FE81915F01B60160
S1130B3090E028D121102A9421E0821A910881148E
S1130B40910479F7E1C0843611F0893639F5F8015A
S1130B5037FE07C060817181828193810C5F1F4FD2
S1130B6008C060817181072E000C880B990B0E5F01
S1130B701F4FF32DFF763F2E97FF09C09095809568
S1130B80709561957F4F8F4F9F4FF0683F2E2AE0FD
S1130B9030E0A30133D1882E861844C0853731F460
S1130BA0232D2F7EB22E2AE030E025C0932D997F8D
S1130BB0B92E8F36C1F018F4883579F0AEC080377D
S1130BC019F0883721F0A9C0E92FE061BE2EB4FEE8
S1130BD00DC0FB2DF460BF2E09C034FE0AC0292FBE
S1130BE02660B22E06C028E030E005C020E130E0E7
S1130BF002C020E132E0F801B7FE07C060817181D4
S1130C00828193810C5F1F4F06C06081718180E0F7
S1130C1090E00E5F1F4FA301F1D0882E8618FB2DA4
S1130C20FF773F2E36FE0DC0232D2E7FA22E891472
S1130C3058F434FE0BC032FC09C0832D8E7EA82EDE
S1130C4005C0B82CA32C03C0B82C01C0B92CA4FE39
S1130C500FC0FE01E80DF11D8081803321F49A2D2F
S1130C60997EA92E09C0A2FE06C0B394B39404C011
S1130C708A2D867809F0B394A3FC10C0A0FE06C0A8
S1130C80B21480F4280C922C9B180DC0B21458F4A2
S1130C90B60180E290E076D0B394F8CFB21418F4A1
S1130CA02B1802C0982C212CA4FE0FC0B60180E39F
S1130CB090E068D0A2FE16C0A1FC03C088E790E0D3
S1130CC002C088E590E0B6010CC08A2D867851F008
S1130CD0A1FE02C08BE201C080E2A7FC8DE2B60156
S1130CE090E050D0891430F4B60180E390E04AD00B
S1130CF09A94F8CF8A94F301E80DF11D8081B6012E
S1130D0090E040D08110F6CF222009F44ECEB601F7
S1130D1080E290E037D02A94F7CFF601868197815C
S1130D2002C08FEF9FEF2B960FB6F894DEBF0FBE75
S1130D30CDBFDF91CF911F910F91FF90EF90DF9086
S1130D40CF90BF90AF909F908F907F906F905F9067
S1130D504F903F902F900895FC0105906150704092
S1130D600110D8F7809590958E0F9F1F0895FC0170
S1130D706150704001900110D8F7809590958E0FC6
S1130D809F1F08950F931F93CF93DF93FB0123813C
S1130D9021FD03C08FEF9FEF2CC022FF16C04681B8
S1130DA05781248135814217530744F4A081B181CE
S1130DB09D012F5F3F4F318320838C9326813781A0
S1130DC02F5F3F4F3783268314C08B01EC01FB0157
S1130DD00084F185E02D0995892BE1F6D80116965A
S1130DE08D919C911797019617969C938E931697C5
S1130DF0CE01DF91CF911F910F910895FA01AA2797
S1130E00283051F1203181F1E8946F936E7F6E5F49
S1130E107F4F8F4F9F4FAF4FB1E03ED0B4E03CD0F7
S1130E20670F781F891F9A1FA11D680F791F8A1FDA
S1130E30911DA11D6A0F711D811D911DA11D20D041
S1130E4009F468943F912AE0269F11243019305DFB
S1130E503193DEF6CF010895462F4770405D4193EC
S1130E60B3E00FD0C9F7F6CF462F4F70405D4A3339
S1130E7018F0495D31FD4052419302D0A9F7EACF01
S1130E80B4E0A6959795879577956795BA95C9F730
S1130E9000976105710508959B01AC010A2E069423
S1130EA05795479537952795BA95C9F7620F731FDC
S10F0EB0841F951FA01D0895F894FFCF27
S1130EBC20096D61726B6574202020002020202095
S1130ECC73797374656D20202020002020253264F2
S1130EDC3A2532643A25326400202077656C636FBE
S1130EEC6D652121202000312E2063616C63756CAB
S1130EFC6174696F6E00322E20746F74616C207390
S1130F0C616C6573002063616C63756C6174696FEB
S1130F1C6E206D6F646500256C6C640020746F74B6
S10D0F2C616C2073616C6573200092
S9030000FC
