S01300006D6172745F6361736865722E7372656388
S113000045C0000060C000005EC000005CC000008D
S11300105AC0000058C0000056C0000054C0000080
S113002052C0000050C000004EC000004CC0000090
S11300304AC0000048C0000046C0000044C00000A0
S11300404EC1000040C000003EC000003CC00000A3
S11300503AC0000038C0000036C0000034C00000C0
S113006032C0000030C000002EC000002CC00000D0
S11300702AC0000028C0000026C0000024C00000E0
S113008022C0000020C000001EC0000011241FBEBA
S1130090CFEFD0E1DEBFCDBF11E0A0E0B1E0EAE8F0
S11300A0FEE000E00BBF02C007900D92AA37B10733
S11300B0D9F721E0AAE7B1E001C01D92A839B2073F
S11300C0E1F79FD1E0C69CCF8FEF84BB85BB089539
S11300D0982F907F95BBAA9AAA9820E1829FC0018D
S11300E0112485BBAA9AAA9880E49FE10197F1F7AD
S11300F00895982F907F916095BBAA9AAA9820E1C1
S1130100829FC0011124816085BBAA9AAA9880E4C9
S11301109FE10197F1F70895662319F0613019F012
S11301200895805801C08054D3CF0F931F93CF9369
S1130130DF938A01F1DFE8018991DBDF8881811196
S1130140FBCFDF91CF911F910F910895BDDF80ED1B
S113015097E020E931E0F9013197F1F70197D9F7F8
S113016080E699E00197F1F788E2B2DF80ED97E04D
S113017020E931E0F9013197F1F70197D9F788E2E5
S1130180A7DF80ED97E020E931E0F9013197F1F73D
S11301900197D9F78CE09CDF86E09ADF82E098DF54
S11301A081E096DF81E094CF81E092DF80E49CE9F6
S11301B00197F1F70895FF920F931F93CF93DF9365
S11301C08FEF8ABB8FE081BBC1DFEEDFC2E0D0E0FE
S11301D000E911E080EEF82E40E051E060E080E0BC
S11301E0A4DF4CE051E061E080E09FDF1BBA88EEC1
S11301F093E0F8013197F1F70197D9F7D5DFFBBA0E
S113020088EE93E0F8013197F1F70197D9F7219738
S113021019F77894DF91CF911F910F91FF90089572
S11302200F931F93CF93DF93CDB7DEB760970FB6CD
S1130230F894DEBF0FBECDBF809193018F93809160
S113024092018F93809195018F93809194018F9364
S1130250809197018F93809196018F938BE191E028
S11302609F938F938E010F5F1F4F1F930F9330D374
S113027049E251E060E080E058DFA80161E080E0FD
S113028054DF0FB6F894DEBF0FBECDBF60960FB635
S1130290F894DEBF0FBECDBFDF91CF911F910F91B8
S11302A0089520E030E041E050E060E27EE4CA01DD
S11302B0022E01C0880F0A94EAF7809582BBCB0115
S11302C00197F1F780B38095807F11F080B3089592
S11302D02F5F3F4F2430310551F780E008951F927E
S11302E00F920FB60F9211242F933F934F935F9366
S11302F06F937F938F939F93AF9320918A01309153
S11303008B0140918C0150918D0160918E0170910F
S11303108F018091900190919101A1E0B2D220933C
S11303208A0130938B0140938C0150938D0160932B
S11303308E0170938F018093900190939101ACE3AF
S1130340ACD209F00CF44FC08091920190919301CA
S113035001968D33910528F4909393018093920133
S11303600DC010929301109292018091940190918A
S11303709501019690939501809394018091940145
S113038090919501CD9768F0109295011092940187
S11303908091960190919701019690939701809393
S11303A096018091960190919701489760F0109280
S11303B0930110929201109295011092940110925F
S11303C097011092960110928A0110928B0110925B
S11303D08C0110928D0110928E0110928F01109257
S11303E0900110929101AF919F918F917F916F91A4
S11303F05F914F913F912F910F900FBE0F901F90DF
S11304001895CF93DF93CDB7DEB7A0970FB6F894C6
S1130410DEBF0FBECDBFCFDE87E6C82E81E0D82E6B
S1130420CE0101965C017E0191E1E90EF11C90E69A
S1130430292E91E0392E88248394912C33E0432E85
S1130440512C42E0642E712C2CDF082F10E0809197
S1130450880190918901009749F4E2DE0B37110578
S113046099F79092890180928801EECF81309105AD
S1130470E1F447E351E060E080E057DE46E451E018
S113048061E080E052DE0E3E110531F48DDE7092A3
S1130490890160928801D8CF0E3D1105A9F684DE4A
S11304A05092890140928801CFCF8230910509F0A2
S11304B088C1F70180E111928A95E9F745E551E099
S11304C060E080E032DE809181018F938091800131
S11304D08F9380917F018F9380917E018F93809180
S11304E085018F93809184018F93809183018F93F1
S11304F0809182018F933F922F92FF92EF92E8D1E5
S1130500A70161E080E011DE0FB6F894DEBF0FBEF4
S1130510CDBF8091860190918701892B09F03EC15E
S11305200E3E110589F4209182013091830140919E
S1130530840150918501AAE0B0E099D1DC01CB019E
S11305400196A11DB11D13C00E3D1105C9F42091E2
S11305508201309183014091840150918501AAE088
S1130560B0E085D1DC01CB010296A11DB11D8093C1
S1130570820190938301A0938401B09385010AC101
S11305800E3B110589F42091820130918301409141
S1130590840150918501AAE0B0E069D1DC01CB016E
S11305A00396A11DB11DE3CF0D3E110589F42091E1
S11305B08201309183014091840150918501AAE028
S11305C0B0E055D1DC01CB010496A11DB11DCFCF04
S11305D00D3D110589F420918201309183014091F0
S11305E0840150918501AAE0B0E041D1DC01CB0146
S11305F00596A11DB11DBBCF0D3B110589F42091BA
S11306008201309183014091840150918501AAE0D7
S1130610B0E02DD1DC01CB010696A11DB11DA7CF01
S11306200B3E110589F420918201309183014091A0
S1130630840150918501AAE0B0E019D1DC01CB011D
S11306400796A11DB11D93CF0B3D110589F420918F
S11306508201309183014091840150918501AAE087
S1130660B0E005D1DC01CB010896A11DB11D7FCFFF
S11306700B3B110589F42091820130918301409153
S1130680840150918501AAE0B0E0F1D0DC01CB01F6
S11306900996A11DB11D6BCF073E1105A1F4209150
S11306A08201309183014091840150918501AAE037
S11306B0B0E0DDD060938201709383018093840164
S11306C09093850167C00E371105F1F46DDD4091FB
S11306D07E0150917F016091800170918101809130
S11306E0820190918301A0918401B0918501840FCE
S11306F0951FA61FB71F80937E0190937F01A0933F
S11307008001B093810113C0073B1105C9F48091A6
S1130710820190918301A0918401B091850180931D
S11307207A0190937B01A0937C01B0937D01109298
S113073082011092830110928401109285012AC0D3
S113074007371105E1F430DD10927E0110927F012C
S113075010928001109281011F921F921F921F928A
S1130760DF92CF92FF92EF92B3D0A70161E080E0D5
S1130770DCDC0FB6F894DEBF0FBECDBF0BC00D3767
S1130780110509F4A3CF0B37110521F41092890147
S1130790109288019092870180928601012B21F4A6
S11307A01092870110928601809185018F93809128
S11307B084018F93809183018F93809182018F9321
S11307C025C0039709F040CE4BE651E060E080E09D
S11307D0ACDC60917E0170917F01809180019091E9
S11307E0810120917A0130917B0140917C015091EB
S11307F07D011BD060937E0170937F018093800103
S1130800909381019F938F937F936F93DF92CF9205
S1130810BF92AF925DD0A50161E080E086DC0FB6A7
S1130820F894DEBF0FBECDBF0FCEA1E21A2EAA1BD5
S1130830BB1BFD010DC0AA1FBB1FEE1FFF1FA2178C
S1130840B307E407F50720F0A21BB30BE40BF50B89
S1130850661F771F881F991F1A9469F76095709512
S1130860809590959B01AC01BD01CF01089521D0E5
S1130870A59F900DB49F900DA49F800D911D1124F0
S113088008950024A7FD00942A0F301D401D501D1B
S1130890601D701D801D901D08950024A7FD009407
S11308A02A17300540055005600570058005900540
S11308B00895A29FB001B39FC001A39F700D811D35
S11308C01124911DB29F700D811D1124911D089555
S11308D00F931F93CF93DF93CDB7DEB72E970FB649
S11308E0F894DEBF0FBECDBF0D891E8986E08C83D0
S11308F01A8309838FEF9FE79E838D83AE01475E42
S11309005F4F6F89788DCE01019610D0EF81F88505
S1130910E00FF11F10822E960FB6F894DEBF0FBEC3
S1130920CDBFDF91CF911F910F9108952F923F92E8
S11309304F925F926F927F928F929F92AF92BF92EB
S1130940CF92DF92EF92FF920F931F93CF93DF9397
S1130950CDB7DEB72B970FB6F894DEBF0FBECDBF71
S11309606C017B018A01FC0117821682838181FF5D
S1130970BFC1CE0101963C01F6019381F70193FDBD
S1130980859193FF81917F01882309F4ADC185325C
S113099039F493FD859193FF81917F01853221F490
S11309A0B60190E0D6D1E8CF912C212C312CFFE177
S11309B0F315D8F08B3279F038F4803279F0833241
S11309C0A1F4232D20611DC08D3261F0803369F4C0
S11309D0232D216016C0832D8260382EE32DE46020
S11309E03E2E2AC0F32DF8601DC037FC2DC020ED2B
S11309F0280F2A3040F08E32B9F436FC75C1232D0D
S1130A002064322E19C036FE06C08AE0989E200D5E
S1130A101124922E11C0EAE02E9E200D1124222EC4
S1130A20F32DF0623F2E08C08C3621F4832D8068AC
S1130A30382E02C0883641F4F70193FD859193FF67
S1130A4081917F018111B3CF982F9F7D955493306D
S1130A5028F40C5F1F4F9FE399830DC0833631F058
S1130A60833771F0833509F055C020C0F8018081C7
S1130A7089830E5F1F4F88248394912C530112C0E5
S1130A802801F2E04F0E511CF801A080B18036FE1F
S1130A9003C0692D70E002C06FEF7FEFC5014ED136
S1130AA04C018201F32DFF773F2E15C0280122E06F
S1130AB0420E511CF801A080B18036FE03C0692D9E
S1130AC070E002C06FEF7FEFC5012DD14C01F32D13
S1130AD0F0683F2E820133FC19C0822D90E0881605
S1130AE09906A0F4B60180E290E033D12A94F5CFC0
S1130AF0F50137FC859137FE81915F01B60190E0E5
S1130B0028D121102A9421E0821A91088114910499
S1130B1079F7E1C0843611F0893639F5F80137FEEA
S1130B2007C060817181828193810C5F1F4F08C06F
S1130B3060817181072E000C880B990B0E5F1F4F8B
S1130B40F32DFF763F2E97FF09C090958095709501
S1130B5061957F4F8F4F9F4FF0683F2E2AE030E022
S1130B60A30133D1882E861844C0853731F4232D50
S1130B702F7EB22E2AE030E025C0932D997FB92E26
S1130B808F36C1F018F4883579F0AEC0803719F08B
S1130B90883721F0A9C0E92FE061BE2EB4FE0DC054
S1130BA0FB2DF460BF2E09C034FE0AC0292F266035
S1130BB0B22E06C028E030E005C020E130E002C0DB
S1130BC020E132E0F801B7FE07C0608171818281C3
S1130BD093810C5F1F4F06C06081718180E090E0BB
S1130BE00E5F1F4FA301F1D0882E8618FB2DFF77CF
S1130BF03F2E36FE0DC0232D2E7FA22E891458F4CD
S1130C0034FE0BC032FC09C0832D8E7EA82E05C095
S1130C10B82CA32C03C0B82C01C0B92CA4FE0FC05F
S1130C20FE01E80DF11D8081803321F49A2D997E17
S1130C30A92E09C0A2FE06C0B394B39404C08A2DA1
S1130C40867809F0B394A3FC10C0A0FE06C0B214C9
S1130C5080F4280C922C9B180DC0B21458F4B601E1
S1130C6080E290E076D0B394F8CFB21418F42B1845
S1130C7002C0982C212CA4FE0FC0B60180E390E0A2
S1130C8068D0A2FE16C0A1FC03C088E790E002C0B1
S1130C9088E590E0B6010CC08A2D867851F0A1FE5B
S1130CA002C08BE201C080E2A7FC8DE2B60190E0B5
S1130CB050D0891430F4B60180E390E04AD09A947D
S1130CC0F8CF8A94F301E80DF11D8081B60190E01C
S1130CD040D08110F6CF222009F44ECEB60180E236
S1130CE090E037D02A94F7CFF6018681978102C02D
S1130CF08FEF9FEF2B960FB6F894DEBF0FBECDBFDC
S1130D00DF91CF911F910F91FF90EF90DF90CF90E3
S1130D10BF90AF909F908F907F906F905F904F9017
S1130D203F902F900895FC01059061507040011090
S1130D30D8F7809590958E0F9F1F0895FC01615000
S1130D40704001900110D8F7809590958E0F9F1FE9
S1130D5008950F931F93CF93DF93FB01238121FD0C
S1130D6003C08FEF9FEF2CC022FF16C0468157812E
S1130D70248135814217530744F4A081B1819D0138
S1130D802F5F3F4F318320838C93268137812F5FE0
S1130D903F4F3783268314C08B01EC01FB01008491
S1130DA0F185E02D0995892BE1F6D80116968D91F0
S1130DB09C911797019617969C938E931697CE0144
S1130DC0DF91CF911F910F910895FA01AA2728303E
S1130DD051F1203181F1E8946F936E7F6E5F7F4F04
S1130DE08F4F9F4FAF4FB1E03ED0B4E03CD0670F80
S1130DF0781F891F9A1FA11D680F791F8A1F911DD3
S1130E00A11D6A0F711D811D911DA11D20D009F422
S1130E1068943F912AE0269F11243019305D319364
S1130E20DEF6CF010895462F4770405D4193B3E04D
S1130E300FD0C9F7F6CF462F4F70405D4A3318F0F4
S1130E40495D31FD4052419302D0A9F7EACFB4E0A5
S1130E50A6959795879577956795BA95C9F700975D
S1130E606105710508959B01AC010A2E06945795FE
S1130E70479537952795BA95C9F7620F731F841F55
S10D0E80951FA01D0895F894FFCFFC
S1130E8A20096D61726B65742020200020202020C7
S1130E9A73797374656D2020202000202025326424
S1130EAA3A2532643A25326400202077656C636FF0
S1130EBA6D652121202000312E2063616C63756CDD
S1130ECA6174696F6E00322E20746F74616C2073C2
S1130EDA616C6573002063616C63206D6F646500E7
S1130EEA256C6420256400256C640020746F746189
S10D0EFA6C2073616C657320000026
S9030000FC
